:020000040800F2
:1000000000000520E12500087D2500087F25000867
:1000100081250008832500088525000800000000D0
:10002000000000000000000000000000872500081C
:1000300089250008000000008B2500088D25000898
:100040003126000831260008312600083126000834
:100050003126000831260008312600083126000824
:100060003126000831260008312600083126000814
:100070003126000831260008312600083126000804
:1000800031260008312600083126000831260008F4
:1000900031260008312600083126000831260008E4
:1000A00031260008312600083126000831260008D4
:1000B00031260008312600083126000831260008C4
:1000C00031260008312600083126000831260008B4
:1000D00031260008312600083126000831260008A4
:1000E0003126000831260008312600083126000894
:1000F0003126000831260008312600083126000884
:100100003126000831260008312600083126000873
:100110003126000831260008312600083126000863
:100120003126000831260008312600083126000853
:100130003126000831260008312600083126000843
:100140003126000831260008312600083126000833
:100150003126000831260008312600083126000823
:100160003126000831260008312600083126000813
:100170003126000831260008312600080000000062
:1001800031260008312600083126000831260008F3
:1001900031260008312600083126000831260008E3
:1001A00031260008312600083126000831260008D3
:1001B00031260008312600083126000831260008C3
:0801C000312600083126000879
:1001D00010B5054C237833B9044B13B10448AFF381
:1001E00000800123237010BD70000020000000007B
:1001F000D42E000808B5034B1BB103490348AFF3E5
:10020000008008BD0000000074000020D42E00080B
:10021000034613F8012B002AFBD1181A0138704746
:1002200001F0FF01102A2BDB10F0070F08D010F8A7
:10023000013B013A8B422DD010F0070F42B3F6D1AB
:10024000F0B441EA012141EA014122F007047FF0C4
:1002500000070023F0E80256083C85EA010586EA1B
:10026000010685FA47F5A3FA87F586FA47F6A5FA57
:1002700087F68EB9EED1F0BC01F0FF0102F0070263
:1002800032B110F8013B013A83EA010313B1F8D10E
:100290000020704701387047002D06BF35460338EF
:1002A000073815F0010F07D1013015F4807F02BF28
:1002B000013015F4C03F0130F0BC0138704700BF79
:1002C00053B94AB9002908BF00281CBF4FF0FF31BD
:1002D0004FF0FF3000F07AB9ADF1080C6DE904CEB3
:1002E00000F006F8DDF804E0DDE9022304B0704711
:1002F0002DE9F0478C460D460446089E002B51D14F
:100300008A4217466DD9B2FA82FEBEF1000F0BD0B9
:10031000CEF1200C01FA0EF520FA0CFC02FA0EF7D1
:100320004CEA050C00FA0EF44FEA174A250CBCFB08
:10033000FAF81FFA87F90AFB18CC45EA0C4508FBC6
:1003400009F3AB420AD9ED1908F1FF3280F023819D
:10035000AB4240F22081A8F102083D44ED1AA4B25C
:10036000B5FBFAF00AFB105544EA054400FB09F915
:10037000A14509D9E41900F1FF3380F00A81A145B4
:1003800040F2078102383C44A4EB090440EA0840EB
:100390000021002E61D024FA0EF400233460736033
:1003A000BDE8F0878B4207D9002E54D0002186E8A3
:1003B00021000846BDE8F087B3FA83F1002940F038
:1003C0008E80AB4202D3824200F2FA80841A65EB3F
:1003D00003050120AC46002E3FD086E81010BDE892
:1003E000F08712B90127B7FBF2F7B7FA87FEBEF123
:1003F000000F34D1EB1B3A0C1FFA87FC0121B3FB31
:10040000F2F8250C02FB183345EA03450CFB08F310
:10041000AB4207D9ED1908F1FF3002D2AB4200F22E
:10042000D1808046ED1AA3B2B5FBF2F002FB105565
:1004300043EA05440CFB00FCA44507D9E41900F18C
:10044000FF3302D2A44500F2B8801846A4EB0C0496
:1004500040EA08409DE731463046BDE8F087CEF1DE
:10046000200405FA0EF307FA0EF720FA04F83A0C06
:1004700025FA04F448EA0308B4FBF2F14FEA184500
:1004800002FB11441FFA87FC45EA044501FB0CF30B
:10049000AB4200FA0EF409D9ED1901F1FF3080F0FA
:1004A0008A80AB4240F2878002393D44EB1A1FFA42
:1004B00088F5B3FBF2F002FB103345EA034500FB7D
:1004C0000CF3AB4207D9ED1900F1FF386FD2AB4204
:1004D0006DD902383D44EB1A40EA01418FE7C1F182
:1004E000200722FA07F88B4005FA01F448EA0303D3
:1004F00020FA07FE4FEA134CFD404EEA040EB5FB0E
:10050000FCF94FEA1E440CFB19551FFA83F844EA24
:10051000054509FB08F4AC4202FA01F200FA01FABF
:1005200008D9ED1809F1FF3043D2AC4241D9A9F105
:1005300002091D442D1B1FFA8EFEB5FBFCF00CFBBF
:1005400010554EEA054400FB08F8A04507D9E41809
:1005500000F1FF3529D2A04527D902381C4440EAD2
:100560000940A4EB0804A0FB02894C45C6464D4651
:1005700015D312D056B1BAEB0E0364EB050404FA9E
:1005800007F7CB401F43CC40376074600021BDE8C3
:10059000F0871846F8E69046E0E6C245EAD2B8EBA6
:1005A000020E69EB03050138E4E72846D7E7404629
:1005B00091E78146BEE7014678E702383C4445E7CB
:1005C000084608E7A8F102083D442BE7704700BF42
:1005D00038B50E4B05460E4A18784FF47A73B3FBC4
:1005E000F0F31068B0FBF3F000F090F8044658B94F
:1005F0000F2D09D8024629464FF0FF3000F04EF883
:10060000044B20461D6038BD012038BD000000208D
:10061000080000200400002008B5032000F02CF89A
:100620000020FFF7D5FF01F053FE002008BD0000B9
:10063000034A044B11681B780B441360704700BFDA
:10064000A000002000000020014B1868704700BF88
:10065000A000002038B50446FFF7F6FF0546631CEE
:100660001EBF044B1B78E418FFF7EEFF401B8442CB
:10067000FAD838BD00000020074A0002D36800F411
:10068000E06023F4E0631B041B0C43F0BF6343F4FE
:1006900000330343D360704700ED00E0194B30B5E1
:1006A000DC68C4F30224C4F10703251D042B28BF12
:1006B0000423062D4FF001058CBF033C002405FAEE
:1006C00003F3002803F1FF3301EA030101FA04F107
:1006D00005FA04F404F1FF3402EA040242EA0102DA
:1006E0004FEA021207DB00F16040D2B200F5614030
:1006F00080F8002330BD00F00F00D2B2024B1A5434
:1007000030BD00BF00ED00E014ED00E00138B0F1B5
:10071000807F0AD2064BF021064A5860002082F8FA
:100720002310072298601A6070470120704700BFAD
:1007300010E000E000ED00E0BFF35F8F044A536A71
:1007400023F4803353620022024B5A60704700BF8B
:1007500000ED00E090ED00E0064A40F00100064B9D
:100760005860536A43F480335362BFF34F8FBFF333
:100770006F8F704700ED00E090ED00E04378124A83
:1007800010B593600178D9B14368D360C37A047B14
:100790001B0643EA04730B43817A43EAC143417B5E
:1007A00043EA8143817B43EA4143C17B43EA0143FE
:1007B000417A43EA0123017A43EA4103136110BD00
:1007C000D160116110BD00BF90ED00E02DE9F04F48
:1007D0000B6885B0DFF8C081019300236C4ADFF815
:1007E000BC910124019D9C402540AC4240F0B68064
:1007F0004C684FEA430E24F0100C0CF1FF36012E2A
:1008000012D80326876806FA0EF627EA0607CE688E
:1008100006FA0EF63E438660C4F3001647689E4013
:1008200027EA05073E4346600326C768BCF1020F6E
:1008300006FA0EF66FEA060607EA060A8F6807FA56
:100840000EF747EA0A07C76016D14FEAD30A03F04A
:10085000070B4FF00F0C00EB8A0A4FEA8B0BDAF80C
:1008600020700CFA0BFC27EA0C0C0F6907FA0BF747
:1008700047EA0C07CAF8207007683E4004F00307F7
:1008800007FA0EFE4EEA06060660E60066D5D8F8C0
:10089000446023F0030703F0030E4FF00F0C46F4FF
:1008A000804607F180474FEA8E0EC8F8446007F58E
:1008B0009C37D8F8446006F480460396039E0CFAF1
:1008C0000EF6D7F808A02AEA060C324EB0424CD0F9
:1008D00006F58066B0424AD006F58066B04248D040
:1008E00006F58066B04246D006F58066B04244D038
:1008F000484544D006F50066B04242D006F5806611
:10090000B04240D006F58066B0423ED006F5806623
:10091000B04214BF0A26092606FA0EF614F4803FE8
:1009200046EA0C06BE606FEA050716680CBF3E403B
:100930002E4314F4003F166056680CBF3E402E4311
:1009400014F4801F566096680CBF3E402E43A402EC
:100950009660D66854BF3E402E43D6600133102BBC
:100960007FF43FAF05B0BDE8F08F0026D4E7012645
:10097000D2E70226D0E70326CEE70426CCE70526F9
:10098000CAE70626C8E70726C6E70826C4E700BF69
:10099000003C0140000002400038024000140240C8
:1009A0000AB1816170470904FBE7D2014FF0000CE6
:1009B0002DE9F043843204684F68A318E568D1F844
:1009C00000E05868C5F30B450EF10106D1F8189008
:1009D00000F470403D445860E068C0F30B40304480
:1009E00040EA0540CD685860E068C0F30A0005445D
:1009F000986800F4704098608868E6680130C6F333
:100A00000A0630440E6940EA05409860186920F0F3
:100A1000070018611E619D6991F8320091F83180DC
:100A2000C3F818C091F8305045EA096545EA082531
:100A300045EA00459D61586920F0FF00586148690A
:100A40005861D86920F4E06020F00700D861086A96
:100A5000CD690543DD61986A486AC3F828C0986289
:100A60001EB3012E23D0B01E022822D9072E0CBFA0
:100A700002200120DD6AA7EB0E0705F0E025DD620C
:100A80008D6AC96A45437843033040EA0540D8621D
:100A9000186B20F4FF6020F0070018631963A35857
:100AA00043F00103A350BDE8F0830420E2E70320F4
:100AB000E0E70220DEE7000038B50446002863D0F6
:100AC00090F8A13003F0FF021BB980F8A02001F0DC
:100AD00017FC0223A06884F8A13023689A6922F0E9
:100AE00070429A61626899690243E0680243206932
:100AF000024360690A4325499A619A680A409A60EC
:100B00009A6842EA0042A0690243E0699A60DA68A2
:100B10000A40DA60DA6842EA0042206A0243606A08
:100B2000DA601A690A401A611A6942EA0042A06A48
:100B300002431A615A6911405961E16A5A6942EAED
:100B40000142216B0A435A61D96A94F8360001F0D8
:100B50007F4194F83550D962D96A94F834200A4319
:100B600042EA052242EA00420020DA625A6B42F071
:100B700006025A639A6942F001029A610123C4F89D
:100B8000A40084F8A13038BD012038BD00F800F081
:100B9000F8B590F8A03006468E469446012B4FF0EB
:100BA00002001DD034240D4686F8A100012704FB65
:100BB000026486F8A07038340FCD0FC40FCD0FC477
:100BC0000FCD0FC42B683046624671462360FFF795
:100BD000ECFE336800205F6286F8A17086F8A00002
:100BE000F8BD0000194B37B51A6C194C42F0805211
:100BF0001A641B6C03F080530193019B236843F438
:100C000080332360FFF720FD05466368DA030CD5C7
:100C1000236843F400332360FFF716FD0C4C0546B0
:100C200063689B030AD5002006E0FFF70DFD401B1B
:100C3000B0F57A7FE9D9032003B030BDFFF704FD9A
:100C4000401BB0F57A7FEBD9F5E700BF00380240D2
:100C5000007000402DE9F341044608B901203FE04F
:100C60000368D80710D42368990760D4236819074C
:100C700000F1A58023685A0700F1C680A06900280A
:100C800040F0308100202BE0944B9A6802F00C0277
:100C9000042A07D09A6802F00C02082A0AD15B687D
:100CA0005A0207D58D4B1B689B03DCD56368002B6C
:100CB000D9D1D3E76368894DB3F5803F13D12B6851
:100CC00043F480332B60FFF7BFFC844D06462B684E
:100CD0009F03C8D4FFF7B8FC801B6428F7D9032012
:100CE00002B0BDE8F0819BB92B6823F480332B6000
:100CF0002B6823F480232B60FFF7A6FC06462B68A5
:100D00009803B0D5FFF7A0FC801B6428F7D9E6E76D
:100D1000B3F5A02F2B6803D143F480232B60CEE7DB
:100D200023F480332B602B6823F48023CAE76B4BBA
:100D30009A6812F00C0F07D09A6802F00C02082A89
:100D400011D15B6859020ED4644B1A68920702D520
:100D5000E268012A82D11A68216922F0F80242EA87
:100D6000C1021A6082E7E3685C4DBBB12B6843F0B7
:100D700001032B60FFF768FC06462B689F0707D529
:100D80002B68226923F0F80343EAC2032B606DE766
:100D9000FFF75AFC801B0228EFD9A0E72B6823F04D
:100DA00001032B60FFF750FC06462B6898077FF580
:100DB0005DAFFFF749FC801B0228F6D98FE7636916
:100DC000464D83B16B6F43F001036B67FFF73CFC4B
:100DD00006466B6F9B073FF54DAFFFF735FC801B59
:100DE0000228F6D97BE76B6F23F001036B67FFF7EF
:100DF0002BFC06466B6F9F077FF53CAFFFF724FC8B
:100E0000801B0228F6D96AE7344B1A6CD00027D42D
:100E10001A6C012642F080521A641B6C03F0805356
:100E20000193019B2E4D2B68D9051BD5A3682B4D33
:100E3000012B27D12B6F43F001032B6741F288353B
:100E4000FFF702FC254F80463B6F9B073FD5002EE6
:100E50003FF414AF214A136C23F0805313640DE761
:100E60000026DFE72B6843F480732B60FFF7ECFB71
:100E700007462B68DA05D9D4FFF7E6FBC01B6428C8
:100E8000F7D92CE7ABB92B6F41F2883823F0010377
:100E90002B672B6F23F004032B67FFF7D5FB074667
:100EA0002B6F9807D3D5FFF7CFFBC01B4045F7D971
:100EB00015E7052B2B6F03D143F004032B67B9E72C
:100EC00023F001032B672B6F23F00403B5E7FFF733
:100ED000BBFBA0EB0800A842B6D900E700380240EF
:100EE00000700040384DAB6803F00C03082B41D074
:100EF0002B68022823F080732B602ED1FFF7A4FB10
:100F000006462B68990122D4226AE3691343626A78
:100F100043F0005343EA8213E26A43EA0263A26A9F
:100F2000294C5208013A43EA02436B602B6843F0B4
:100F300080732B60FFF788FB054623689A013FF515
:100F4000A1AEFFF781FB401B0228F6D9C7E6FFF7E9
:100F50007BFB801B0228D4D9C1E6FFF775FB044652
:100F60002B689B017FF58EAEFFF76EFB001B0228FE
:100F7000F6D9B4E601286B683FF4B2AE03F4800200
:100F8000E1698A427FF46AAE03F03F02216A8A4235
:100F90007FF464AE47F6C072616A1A40B2EB811FFB
:100FA0007FF45CAEA26A03F440315208013AB1EB1F
:100FB000024F7FF453AEE26A03F07063B3EB026F4B
:100FC00014BF012000208BE600380240134908B509
:100FD0008B6803F00C03042B03D0082B03D01048BC
:100FE00008BD104808BD4A684B68496802F03F02D6
:100FF00013F48003C1F388111ABF0A48002308487C
:10100000A1FB0001FFF75CF9044B5B68C3F30143EC
:1010100001335B00B0FBF3F008BD00BF00380240B5
:101020000024F40040787D012DE9F0410D4604468E
:1010300010B90120BDE8F081464A136803F00F03A0
:101040008B4229D321688F0731D4C80744D4414A41
:10105000136803F00F039D4268D32268510771D4CF
:10106000130707D53C4A2169936823F4604343EA98
:10107000C1039360FFF7AAFF374B384A9B68C3F35D
:101080000313D35CD840364B1860364B1868FFF713
:101090009FFA0020BDE8F081136823F00F030B4393
:1010A0001360136803F00F039942C2D1CAE711F02D
:1010B000040F294B03D09A6842F4E0529A600E075D
:1010C00003D59A6842F460429A609A68A06822F058
:1010D000F00202439A60B8E761681F4B01291A6861
:1010E0001CD112F4003FA4D09A6841F288381A4EFD
:1010F00022F003020A439A60FFF7A6FA0746B36894
:10110000626803F00C03B3EB820FA0D0FFF79CFAE8
:10111000C01B4045F3D90320BDE8F081022902D16C
:1011200012F0007FDFE712F0020FDCE7136823F014
:101130000F032B431360136803F00F039D427FF4EA
:1011400078AF8AE70449E0688B6823F4E0530343EF
:101150008B6085E7003C0240003802400E2F0008FB
:101160000800002004000020044B054A9B68C3F3DC
:101170008223D35C034A1068D8407047003802408D
:101180001E2F000808000020044B054A9B68C3F38B
:101190004233D35C034A1068D8407047003802409D
:1011A0001E2F0008080000202DE9F74302680446BE
:1011B00012F001060BD0B84B996821F40001996038
:1011C000466B99683143B6FA86F67609996012F44F
:1011D000002512D0B049E56BD1F88C30B5F5801FF1
:1011E00023F4401308BF012643EA050316BFB5FAEE
:1011F00085F500256D09C1F88C30D10210D5A648BF
:10120000216CD0F88C30B1F5800F23F4400343EA11
:101210000103C0F88C3000F08581002908BF01254A
:1012200012F0807F18BF0126920631D59A4B9B4F52
:101230001A6C42F080521A641B6C03F080530193C5
:10124000019B3B6843F480733B60FFF7FDF98046E8
:101250003B68DB0540F168818F4F3B6F13F44073AF
:1012600040F06D81236B03F44072B2F5407F8A4AEF
:1012700040F08B81916823F0704021F4F81120F444
:10128000407001439160C3F30B03116F0B4313676D
:101290002368DA060CD5804AD2F88C1021F08071D0
:1012A000C2F88C10D2F88C10A06B0143C2F88C10DD
:1012B0005F0408D57849606ED1F8902022F440325E
:1012C0000243C1F89020180408D57349A06ED1F8E4
:1012D000902022F440220243C1F89020D90308D57F
:1012E0006D49E06ED1F8902022F440120243C1F81B
:1012F00090209A0308D56849206FD1F8902022F4F5
:1013000040020243C1F890205F0608D56249606C34
:10131000D1F8902022F003020243C1F89020180671
:1013200008D55D49A06CD1F8902022F00C02024350
:10133000C1F89020D90508D55749E06CD1F8902024
:1013400022F030020243C1F890209A0508D5524994
:10135000206DD1F8902022F0C0020243C1F8902005
:101360005F0508D54C49606DD1F8902022F4407299
:101370000243C1F89020180508D54749A06DD1F85F
:10138000902022F440620243C1F89020D90408D58D
:101390004149E06DD1F8902022F440520243C1F857
:1013A00090209A0408D53C49206ED1F8902022F470
:1013B00040420243C1F890205F0208D53649A06F31
:1013C000D1F8902022F080620243C1F89020980268
:1013D0000CD53148E16FD0F89020B1F1006F22F0C8
:1013E000006208BF01250A43C0F8902013F0080FDF
:1013F00018BF0125590308D52749606FD1F89020FF
:1014000022F040720243C1F890201A0209D5224905
:10141000D4F88000D1F8902022F080520243C1F825
:101420009020012E00F0B580B3F1007F00F0B18074
:10143000012D75D1184D2B6823F080532B60FFF7D9
:1014400003F906462B689F0000F1278121680E03EF
:1014500001D5E36B1BB1CD0222D5236C03BB0E4A31
:10146000D2F88830D2F8880003F4403300F0E0402E
:101470000343606943EA8013A06943EA0063C2F84A
:101480008830D2F88C30A06A23F4F853013843EA4C
:101490000023C2F88C3003E00038024000700040A6
:1014A000880215D5E36FB3F1006F11D1824AD2F8EB
:1014B0008830D2F8880003F0706300F0E040034306
:1014C000606943EA8013206A43EA0043C2F8883027
:1014D0000A0719D57849D1F88820D1F8883002F068
:1014E000706203F440331343626943EA8213E26992
:1014F00043EA0273C1F88830D1F88C30E26A23F4F1
:1015000040331343C1F88C306B4C236843F0805355
:101510002360FFF799F8054623689B0040F1C480DB
:10152000002009E001267BE6FFF78EF8A0EB08001B
:1015300064287FF68DAE032003B0BDE8F083226BF4
:1015400002F4407293423FF48DAE3B6F3A6F23F446
:10155000407342F480323A673A6F22F480323A673D
:101560003B673B6FD8077FF57DAEFFF76DF841F223
:10157000883980463B6F99073FF574AEFFF764F8F2
:10158000A0EB08004845F5D9D5E7916821F4F8119A
:1015900078E6494E336823F080633360FFF754F8F0
:1015A000074633681B0172D42268D70712D5636BD4
:1015B00083B9D6F88430D6F8841003F4403301F0B0
:1015C00070610B43616843EA8113A16843EA0173C8
:1015D000C6F88430160303D5E36BB3F5801F05D03E
:1015E000D0021ED5236CB3F5800F1AD13249D1F841
:1015F0008430D1F8840003F4403300F0E04003432A
:10160000606843EA8013E06843EA0063C1F884300D
:10161000D1F88C00636A20F01F00013B0343C1F83E
:101620008C30D10111D52449D1F88430D1F884000F
:1016300003F0706300F0E0400343606843EA801306
:10164000206943EA0043C1F8843092010DD5236933
:1016500062681B0443EA8213E26843EA0263A268F9
:1016600043EA0273144AC2F88430134E336843F0DD
:1016700080633360FEF7E8FF074633681B013FF5E0
:10168000D7AEFEF7E1FFC01B6428F6D953E7FEF79B
:10169000DBFFC01B642884D94DE7FEF7D5FF801B14
:1016A00064287FF6CFAE46E7FEF7CEFF401B6428E6
:1016B0007FF632AF3FE700BF0038024038B50D4635
:1016C0000446C8B190F82C3003F0FF021BB980F833
:1016D0002D2000F0E7FE0223211D206884F82C3025
:1016E00000F0A6FA62682946206800F0E0FA0123BB
:1016F000002084F82C3038BD012038BD38B50446B0
:1017000090F82C000D46C0B202280DD002232068AC
:1017100084F82C3000F013FB2B680020022B0CBF48
:101720000523012384F82C3038BD000038B5C26988
:1017300004460368816800691D68014360690143CC
:10174000904811432840256A0143E06819605968B0
:1017500021F4405101435960A1699868294320F45C
:1017600030600143996088498B4217D1874B884983
:10177000D3F8903003F00303B2F5004FCB5C29D1CE
:10178000082B00F29D80DFE813F08C00E800EE00EB
:101790009B00FA009B009B009B0076007D498B42DA
:1017A00006D17A4B7C49D3F8903003F00C03E3E781
:1017B0007A498B421DD1754BD3F8903003F030033A
:1017C000102B00F0D9800ED8002B67D0B2F5004F57
:1017D00076D01023082B73D8DFE803F0999FA2720C
:1017E000B4727272B700202B00F0BA80302B3FD059
:1017F000ECE76B498B420DD1644BD3F8903003F08A
:10180000C003402B00F0B880DED9802B00F0A88008
:10181000C02BECE763498B4210D15C4BD3F890307E
:1018200003F44073B3F5807F00F0A680CCD9B3F504
:10183000007F00F09580B3F5407FD8E75A498B428E
:101840001ED1524BD3F8903003F44063B3F5806F50
:1018500000F0928006D8002B7CD0B2F5004F2FD13B
:1018600010238DE7B3F5006F7AD0B3F5406FF4D154
:10187000B2F5004F69D16368580800F5803078E010
:101880004A498B4224D1414BD3F8903003F4405362
:10189000B3F5805F70D015D8002BDED1B2F5004FC4
:1018A00035D1FFF761FC6268530803EB4000B0FBE1
:1018B000F2F080B24FF6EF73A0F110029A421AD9FB
:1018C000012020E0B3F5005F4AD0B3F5405FCEE7DA
:1018D00037498B42F4D12D4BD3F8903003F4404379
:1018E000B3F5804F48D07FF66FAFB3F5004F37D0D8
:1018F000B3F5404F7BE720F00F03C0F342002268AE
:101900001843D060002000232366636638BDFFF7CC
:101910002BFC636800EB530008E0FFF735FCF8E7A9
:101920006368580800F5740000F51050B0FBF3F040
:1019300080B24FF6EF73A0F110029A42C0D823682C
:10194000D860DFE7FFF742FBE3E76368580800F57C
:101950000040EBE7B2F5004FDFD1FFF715FCA2E73F
:10196000B2F5004FDCD16368580800F1F47000F55F
:101970009040B0FBF3F09CE7B2F5004FE2D1FFF7E7
:1019800025FB90E7F369FFEF0010014000380240AB
:10199000EC2E000800440040F02E000800480040F3
:1019A000004C00400050004000140140007800400E
:1019B000007C0040436ADA0710B506D50168846AE6
:1019C0004A6822F4003222434A609C0706D5016827
:1019D000C46A4A6822F4803222434A60590706D515
:1019E0000168046B4A6822F4802222434A601A0785
:1019F00006D50168446B4A6822F4004222434A60DB
:101A0000DC0606D50168846B8A6822F48052224382
:101A10008A60990606D50168C46B8A6822F4005270
:101A200022438A605A0610D50168046C4A68B4F5EE
:101A3000801F22F4801242EA04024A6005D14A68FB
:101A4000446C22F4C00222434A601B0606D5026899
:101A5000816C536823F400230B43536010BD2DE9C0
:101A6000F041069D04460F46164698462168CA690D
:101A700037EA02030CBF01220022B24202D000204A
:101A8000BDE8F081681CF2D0FEF7DEFDA0EB080097
:101A900085422068036800D37DB923F4D0730360C6
:101AA000836823F00103836020236367A367002317
:101AB000032084F87030BDE8F0815A07D6D5C36999
:101AC0001B05D3D54FF400630362036823F4D0737E
:101AD0000360836823F00103836020236367A367A7
:101AE000E367E4E72DE9F7439846436F04460E4663
:101AF000202B91464CD1002948D0002A46D090F89E
:101B00007030012B44D00123002580F87030212350
:101B1000C5674367FEF798FDA3680746A4F8509091
:101B2000B3F5805FA4F8529003D123690BB9354611
:101B30001E46002384F87030B4F852203B46CDF89E
:101B4000008092B23AB940212046FFF788FF40B9A1
:101B50002023636706E0002280212046FFF77FFFF5
:101B600018B1032003B0BDE8F08322685EB935F8F0
:101B7000023BC3F308039362B4F85230013B9BB2BB
:101B8000A4F85230D8E716F8013BF4E70120E9E762
:101B90000220E7E737B500250446C567FEF754FD88
:101BA000226803461268120707D4202300206367C7
:101BB00084F87000A36703B030BD6FF07E424FF42D
:101BC0000011204600922A46FFF749FF0028ECD07A
:101BD0000320F0E710B5044640B3436F1BB980F80B
:101BE000703000F015FC22682423204663671368D8
:101BF00023F001031360FFF799FD012816D0636AF3
:101C000013B12046FFF7D6FE236820465A6822F417
:101C100090425A609A6822F02A029A601A6842F04A
:101C20000102BDE810401A60FFF7B4BF012010BDEB
:101C30000B684A68012BD1F810C003682DE9F04306
:101C4000D1F80890D1F80C804D698C69D1F81CE06E
:101C50000F6A4E6A14D023F4FF4323F07F031A4324
:101C600042EA090242EA080242EA0C032B432343F8
:101C700043EA0E033B43334303600020BDE8F08397
:101C8000416823F4F84321F4FF4143EA0E0321F0B5
:101C90007F013B430A431E4342EA0902066042EACF
:101CA000080242EA0C032B4323434360E5E7012A81
:101CB000D1F80CC0F0B591E808408F680D694E6905
:101CC00089691BD082680EF1FF3E013B0CF1FF3C9D
:101CD00002F07042013D013E013942EA0E121A4300
:101CE0007B1E42EA032343EA0C3343EA054343EAFB
:101CF000065343EA016383600020F0BD84680EF15F
:101D0000FF3EC268013B24F470040CF1FF3C02F07A
:101D10007042013E24F47044013942EA0E1244EA52
:101D20000C341A437B1E44EA065642EA03226B1E19
:101D3000866042EA034343EA0163C360DCE791E85B
:101D40000C0013B51343CA680446002043EA42233B
:101D50008A680190013A43EA42130193019B23618F
:101D600002B010BD2DE9F743294C01254FF00009C1
:101D70004FF01008274F21464FF6FF720646CDF868
:101D80000490A560C4F80C9084E82001FFF7B6FC2D
:101D900038702846FEF75EFC022321464FF6FF729C
:101DA0003046A560C4F80C9084E80801FFF7A6FC53
:101DB00038702846FEF74EFC032321464FF6FF728B
:101DC0003046C4F80C9084E808010823A360FFF7AC
:101DD00095FC38702846FEF73DFC4FF408734FF62B
:101DE000FF722146019304233046A56084E8080170
:101DF000019BE360FFF782FC32683870536943F45B
:101E0000216343F00803536103B0BDE8F08300BFD2
:101E1000A4000020B400002070B5B4B0302200212E
:101E2000022407A8012600F02FFC1422002102A89A
:101E300000F02AFC0021842213A800F025FC234B8B
:101E400007A800251A6C42F080521A641B6C03F03C
:101E500080530093009B1E4B1A6842F440421A6064
:101E60001B68079603F440430D9411940193019B62
:101E70004FF48033129408934FF480030E93192388
:101E80000F934FF4C8731093FEF7E4FEFEF7AAFE1B
:101E90000F23062102A802934FF4A0530394059345
:101EA0004FF4805304950693FFF7BEF8482313A818
:101EB0001A941393C023199418931B951D961E957D
:101EC0002495FFF771F934B070BD00BF00380240AF
:101ED0000070004080B5AAB01422002100240BA895
:101EE00000F0D2FB002110221DA800F0CDFBFEF770
:101EF00023FCB64A01231DA81E9211228DF87430CE
:101F00008DF87C2003228DF882308DF87F208DF8AB
:101F100075408DF87D408DF87E408DF880408DF8BD
:101F200081408DF88340FEF729FC0420FEF714FC65
:101F3000BFF34F8FBFF36F8FA54BC3F85042BFF372
:101F40004F8FBFF36F8F5A6942F400325A61BFF36B
:101F50004F8FBFF36F8FC3F88440BFF34F8FD3F819
:101F6000802043F6E076C2F3C904C2F34E32A507DF
:101F7000520102EA060E2846214640EA0E070139C0
:101F800000F14040C3F860724F1CF6D1203A12F1C4
:101F9000200FEED1BFF34F8F5A6942F480325A615D
:101FA000BFF34F8FBFF36F8FFEF736FB0024FFF7B1
:101FB00033FF142200211DA800F066FB854B02258B
:101FC00002211A6B4FF001088348052742F01002E6
:101FD000824E4FF480691A631A6B02F0100200926D
:101FE000009A1A6B42F002021A631A6B02F00202A4
:101FF0000192019A1A6B42F040021A631A6B02F0C6
:1020000040020292029A1A6B42F400721A631A6B2F
:1020100002F400720392039A1A6B42F008021A63E8
:102020001A6B02F008020492049A1A6B42F480625E
:102030001A631A6B02F480620592059A1A6B42F0D9
:1020400020021A631A6B02F020020692069A1A6B9B
:1020500042F080021A631A6B02F080020792079A1C
:102060001A6B42F480721A631A6B02F4807208923F
:10207000089A1A6B42F001021A631A6B02F001020D
:102080000992099A1A6B42F004021A6300221B6B30
:1020900003F004030A930A9BFEF782FC1DA94E4835
:1020A0001D95CDF878801F942094FEF78FFB1C229D
:1020B00021461DA800F0E8FA494B04221DA930462C
:1020C0001D95F2601F92219522952395B46074614D
:1020D000F461B462434D86E81800102333614FF475
:1020E0008073B3614FF4006333624FF480537362C3
:1020F00006231E932093FFF7E1FA3422214610A80D
:1021000000F0C2FA342221461DA800F0BDFA364B79
:102110002846AC60EC602C612F6285F8344085F86D
:10212000354085F8364085E8180007236B610323A6
:10213000AB610E23EB6140F28E236B6240F2E5133C
:10214000AB624FF42573EB6240F2E7132B63FEF7AB
:10215000B3FC224610A928461094119412941394AB
:10216000149415941694CDF85C90189719941A94B9
:102170001B948DF870408DF871408DF87240FEF719
:1021800007FD1DA9424628461D941E941F942094C5
:10219000219422942394CDF8909025972694279407
:1021A00028948DF8A4408DF8A5408DF8A640FEF740
:1021B000EFFC0E484FF4E1330D4A8460C4600461C3
:1021C0008461C4610462446214E000BF0000012025
:1021D00000ED00E00038024000200240E005002051
:1021E000400100A0B800002000680140600100200C
:1021F000001001402D4D80E80C000C234361FFF7D7
:10220000E9FC3046FFF7AEFD294A2A4B2A48114621
:1022100005EB8304A35001338342F9D1274C0023FB
:1022200023602268FF2A13D90023254923602368ED
:10223000FF2B18D90023224D224E234F2360226802
:10224000FF2A1BD9012202212048FEF7A9FBFEE745
:1022500002F1405351F8222003F500739B001A60ED
:1022600023680133DCE703F1405202F5007292006B
:10227000126841F8232001332360D8E755F8223053
:1022800031460BA800F008FA0BA8FDF7C1FF4FF488
:10229000805382B20BA93846FFF724FC6420FEF776
:1022A000D9F9236801332360C9E700BF60C2172151
:1022B00014060020680FBA376810BA378C00002067
:1022C000E0010020FD2E00086001002000200240F7
:1022D0000A4B82B01A6C42F080521A641A6C02F0F7
:1022E00080520092009A5A6C42F480425A645B6CAD
:1022F00003F480430193019B02B070470038024011
:1023000070B58CB004461422002107A800F0BCF977
:102310002268394B9A426DD103F5504302260E25AF
:1023200007A95A6C0024354842F080625A645A6CFE
:1023300002F080620192019A1A6B42F010021A6355
:102340001A6B02F010020292029A1A6B42F40072A7
:102350001A631A6B02F400720392039A1A6B42F426
:1023600080621A631A6B02F480620492049A1A6BF8
:1023700042F080021A631A6B02F080020592059AFD
:102380001A6B42F480721A631B6B089603F4807315
:102390000693069B102307930B95FEF717FA4EF250
:1023A000FF7307A916480793089609940A940B959A
:1023B000FEF70CFAFF2307A9124807930896099421
:1023C0000A940B95FEF702FA4FF4004307A90E4852
:1023D0000793089609940A940B95FEF7F7F94FF4C2
:1023E000704307A909480793089609940A940B9526
:1023F000FEF7ECF90CB070BD00680140001002401F
:102400000024024000280240001C0240002002403C
:1024100070B588B004461422002103A800F034F9F6
:1024200022681D4B9A4234D103F5943302260325CA
:1024300007245A6C03A9194842F010025A645A6CD6
:1024400002F010020092009A1A6B42F002021A6324
:102450001A6B02F002020192019A1A6B42F0010219
:102460001A631B6B049603F001030695079402930D
:10247000029B80230393FEF7A9F94FF4007303A98D
:102480000748039300230496059306950794FEF7E7
:102490009DF908B070BD00BF00100140000402406B
:1024A00000000240F0B587B01422002101A800F01E
:1024B000EBF82A4B1E68002E4DD10122022703257E
:1024C0000C241A6001A9264B26489A6B42F001029F
:1024D0009A639B6B029703F00103049505940093A4
:1024E000009B4FF683730193FEF770F948F21313C4
:1024F00001A91D4801930297039604950594FEF7E0
:1025000065F94CF2037301A91848019302970396E9
:1025100004950594FEF75AF94FF63F0301A91448B4
:1025200001930297039604950594FEF74FF928232B
:1025300001A9104801930297039604950594FEF7AC
:1025400045F9082301A90C480193029703960495C5
:102550000594FEF73BF907B0F0BD00BF90000020E6
:10256000003802400010024000180240000C0240F7
:1025700000140240001C0240000802407047FEE7C1
:10258000FEE7FEE7FEE7704770477047FEF750B87A
:1025900008B50A4B0246196809B909491960186853
:1025A000694602448A4206D900F044F80C230360CD
:1025B0004FF0FF3008BD1A6008BD00BF9400002036
:1025C000180A0020054BD3F8882042F47002C3F8A3
:1025D00088204FF000629A60704700BF00ED00E075
:1025E000DFF834D0002103E00C4B5B58435004313A
:1025F0000B480C4B42189A42F6D30B4A02E00023D8
:1026000042F8043B094B9A42F9D3FFF7DBFF00F095
:1026100017F8FFF75FFC7047000005206C2F0008DB
:10262000000000207000002070000020180A002028
:10263000FEE70000014B1868704700BF0C00002047
:1026400070B50D4E0D4CA41BA4100025A54209D158
:102650000B4E0C4C00F03EFCA41BA4100025A54220
:1026600005D170BD56F8253098470135EEE756F88C
:10267000253098470135F2E7642F0008642F0008E1
:10268000642F0008682F000802440346934200D1DB
:10269000704703F8011BF9E70EB400B59CB04FF486
:1026A00002711DABADF81410029006906FF000415E
:1026B0000A48049107914FF6FF7153F8042BADF8C7
:1026C00016100068019302A900F066F8029B002230
:1026D0001A701CB05DF804EB03B070470C000020CA
:1026E0002DE9F0478E689E4282460C4691469846F8
:1026F00035D88A8912F4906F31D0256809696F1A2C
:102700006569022305EB450595FBF3F508F1010327
:102710003B449D4238BF1D46530531D5294600F044
:1027200039FB064650B90C23CAF80030A38943F0A0
:102730004003A3814FF0FF30BDE8F0873A4621699E
:1027400000F0B4FAA38923F4906343F08003A381DB
:10275000266165613E44ED1B2660A5604646464500
:1027600028BF464632464946206800F0AAFAA368C8
:102770009B1BA36023681E4426600020BDE8F087F1
:102780002A4600F065FB06460028E1D12169504643
:1027900000F0B2FAC7E700002DE9F04F9DB0804687
:1027A00003938B891C060D4616460FD50B696BB932
:1027B000402100F0EFFA2860286128B90C23C8F8FE
:1027C00000304FF0FF30C5E040236B6100230993D8
:1027D00020238DF8293030238DF82A304FF0010B5B
:1027E00037463C4614F8013B002B3CD1B7EB060AB8
:1027F0000BD05346324629464046FFF771FF013061
:1028000000F0A380099B534409933B78002B00F010
:102810009C8000234FF0FF320493079305920693A8
:102820008DF853301A93052221785048FDF7F8FCB3
:10283000671C049BD8B9D90644BF20228DF85320C9
:102840001A0744BF2B228DF8532022782A2A16D04B
:10285000079A00210A20274601343B78303B092B98
:1028600051D9C9B111E0252BC0D02746B9E73F4A5D
:10287000801A0BFA00F0184304903C46D3E7039A01
:10288000111D12680391002A01DB079204E05242F5
:1028900043F00203079204933B782E2B0ED17B78F2
:1028A0002A2B07F1010132D1039B1A1D1B680392E9
:1028B000002BB8BF4FF0FF33023705932C4C39780B
:1028C00003222046FDF7ACFC38B14023001B03FA7D
:1028D00000F0049B034304930137397825488DF8B1
:1028E000281006227E1CFDF79BFC002835D0224BC9
:1028F000FBB9039B073323F0070308330393099BBA
:102900004B4409936CE700FB02320121A3E700234B
:10291000059318460A240F4601313A78303A092ABD
:1029200003D9002BCAD00590C8E704FB002001237F
:10293000F1E703AB00932A46104B04A94046AFF3DE
:102940000080B0F1FF3F8146D9D1AB895B063FF5EE
:1029500038AF09981DB0BDE8F08F03AB00932A464D
:10296000064B04A9404600F081F8EAE7262F00084C
:102970002C2F0008302F000800000000E12600087E
:102980002DE9F04791461F468A680B69DDF82080E3
:102990009342B8BF1346C9F8003091F84320064669
:1029A0000C4612B10133C9F800302368990642BFC2
:1029B000D9F800300233C9F80030256815F0060553
:1029C00007D104F1190AE368D9F800209B1A9D4247
:1029D00029DB94F843302268003318BF01239206A4
:1029E0002ED404F1430239463046C047013021D08D
:1029F0002368E568D9F8002003F00603042B08BF1C
:102A0000AD1AA36822690CBF25EAE575002593423B
:102A1000C4BF9B1AED184FF000091A344D451BD165
:102A20000020BDE8F0870123524639463046C047B2
:102A3000013003D14FF0FF30BDE8F0870135C2E728
:102A4000E1185A1C302081F84300224494F84510C4
:102A500082F843100233C4E7012322463946304648
:102A6000C0470130E6D009F10109D7E72DE9F0436D
:102A700017460A7E85B06E2A984606460C460C9B81
:102A800001F1430E00F0BC801AD8632A2ED00AD878
:102A9000002A00F0C880582A00F08A8004F142051C
:102AA00084F842202AE0642A01D0692AF6D12168FC
:102AB0001A6811F0800F23D0111D1960136827E0E8
:102AC000732A00F0B48008D86F2A2AD0702AE5D182
:102AD0000A6842F020020A6003E0752A21D0782AB1
:102AE000DCD1782284F845206E4964E01A6801F14F
:102AF0004205111D1960136884F842300123A3E0D8
:102B000011F0400F02F104011960D7D0B2F9003082
:102B1000002B03DA2D225B4284F8432062490A220B
:102B200017E02068196810F0800F03D0081D1860A6
:102B30000B6806E010F0400F01F104001860F7D0B8
:102B40000B8859496F2A14BF0A220822002084F8F2
:102B500043006568A560002DC0F29C80206820F0CD
:102B600004002060002B3FD1002D40F09580754679
:102B7000082A0BD12368DA0708D5236962689A42CC
:102B8000DEBF302305F8013C05F1FF35AEEB050350
:102B90002361CDF800803B4603AA21463046FFF76B
:102BA000EFFE013055D14FF0FF3005B0BDE8F083A6
:102BB00081F845203C492268186812F0800F00F126
:102BC00004051D6001D0036802E05506FBD50388AB
:102BD000D00744BF42F0200222601BB9226822F0D5
:102BE000200222601022B1E77546B3FBF2F002FB2F
:102BF0001033CB5C05F8013D03460028F5D1B7E75B
:102C000008681A68496910F0800F04D0101D186018
:102C10001368196007E010F0400F02F1040018601B
:102C20001368F6D01980002323617546B1E71A684E
:102C3000111D19601568626800212846FDF7F0FA39
:102C400008B1401B606063682361002384F843304F
:102C50009FE723692A4639463046C0470130A2D053
:102C600023689B0707D5002504F11909E368039A37
:102C70009B1A9D4205DBE068039B9842B8BF18464B
:102C800093E701234A4639463046C04701308AD08F
:102C90000135EBE7002BA7D10B7884F8423004F123
:102CA000420565E7482F0008372F000810B5431E7E
:102CB0000A44914200D110BD11F8014B03F8014FB5
:102CC000F7E7884210B501EB020303D8421E994290
:102CD0000CD110BD9842F9D28118D21AD34200D13A
:102CE00010BD13F8014D01F8014DF7E711F8014B44
:102CF00002F8014FEBE7000038B50546002945D042
:102D000051F8043C0C1F002BB8BFE41800F0D6F8B3
:102D10001F4A1368104633B9636014602846BDE843
:102D2000384000F0CCB8A3420CD921686218934215
:102D300004BF1A685B68636004BF521822600460B5
:102D4000ECE713465A680AB1A242FAD91968581832
:102D5000A0420BD120680144581882421960DDD18D
:102D6000106852685A6001441960D7E702D90C23F1
:102D70002B60D3E7206821188A4204BF116852688B
:102D8000626004BF091821605C60C7E738BD00BFFE
:102D90009800002070B5CD1C25F0030508350C2DDA
:102DA00038BF0C25002D064601DBA94203D90C23B0
:102DB0003360002070BD00F081F8234A146821467A
:102DC00091B9224C23681BB9304600F067F82060A7
:102DD0002946304600F062F8431C26D10C233360AC
:102DE000304600F06CF8E4E70B685B1B1AD40B2B41
:102DF0000FD90B60CD50CC18304600F060F804F1CC
:102E00000B00231D20F00700C31A1BD05A42E250CA
:102E100070BD8C420DBF63684B686360136018BF60
:102E20000C46E9E70C464968CAE7C41C24F00304D1
:102E3000A04205D0211A304600F030F80130CDD044
:102E40002560D9E770BD00BF980000209C000020DD
:102E5000F8B5074614460E4621B91146BDE8F840BC
:102E6000FFF798BF22B9FFF747FF25462846F8BD70
:102E700000F026F884420FD921463846FFF78AFF32
:102E800005460028F2D031462246FFF70FFF3146B3
:102E90003846FFF731FFE9E73546E7E738B5064C36
:102EA0000023054608462360FFF772FB431C02D14E
:102EB000236803B12B6038BD140A002070477047A7
:102EC00051F8040C0028A0F10400BCBF0B58C01836
:102ED00070470000F8B500BFF8BC08BC9E467047BC
:0C2EE000F8B500BFF8BC08BC9E46704767
:102EEC000104020800101010041010100210101031
:102EFC00082530336C643A2030782530386C5872A1
:102F0C006E00000000000000000001020304060730
:102F1C0008090000000001020304232D302B2000BF
:102F2C00686C4C0065666745464700303132333477
:102F3C003536373839414243444546003031323317
:102F4C0034353637383961626364656600000000D9
:082F5C0094D3FF7F0100000087
:042F6400F50100086B
:042F6800D10100088B
:102F6C0001000000100000000024F40010000020FC
:102F7C000000000000000000000000000000000045
:102F8C000000000000000000000000000000000035
:102F9C000000000000000000000000000000000025
:102FAC000000000000000000000000000000000015
:102FBC000000000000000000000000000000000005
:102FCC0000000000000000000000000000000000F5
:04000005080025E1E9
:00000001FF
